{
  "_format": "hh-sol-artifact-1",
  "contractName": "NukedApe",
  "sourceName": "contracts/NukedApe.sol",
  "abi": [
    {
      "inputs": [
        {
          "internalType": "string",
          "name": "uri",
          "type": "string"
        },
        {
          "internalType": "bytes32",
          "name": "merkleroot",
          "type": "bytes32"
        },
        {
          "internalType": "address",
          "name": "_proxyRegistryAddress",
          "type": "address"
        }
      ],
      "stateMutability": "nonpayable",
      "type": "constructor"
    },
    {
      "anonymous": false,
      "inputs": [
        {
          "indexed": true,
          "internalType": "address",
          "name": "owner",
          "type": "address"
        },
        {
          "indexed": true,
          "internalType": "address",
          "name": "approved",
          "type": "address"
        },
        {
          "indexed": true,
          "internalType": "uint256",
          "name": "tokenId",
          "type": "uint256"
        }
      ],
      "name": "Approval",
      "type": "event"
    },
    {
      "anonymous": false,
      "inputs": [
        {
          "indexed": true,
          "internalType": "address",
          "name": "owner",
          "type": "address"
        },
        {
          "indexed": true,
          "internalType": "address",
          "name": "operator",
          "type": "address"
        },
        {
          "indexed": false,
          "internalType": "bool",
          "name": "approved",
          "type": "bool"
        }
      ],
      "name": "ApprovalForAll",
      "type": "event"
    },
    {
      "anonymous": false,
      "inputs": [
        {
          "indexed": true,
          "internalType": "contract IERC20",
          "name": "token",
          "type": "address"
        },
        {
          "indexed": false,
          "internalType": "address",
          "name": "to",
          "type": "address"
        },
        {
          "indexed": false,
          "internalType": "uint256",
          "name": "amount",
          "type": "uint256"
        }
      ],
      "name": "ERC20PaymentReleased",
      "type": "event"
    },
    {
      "anonymous": false,
      "inputs": [
        {
          "indexed": true,
          "internalType": "address",
          "name": "previousOwner",
          "type": "address"
        },
        {
          "indexed": true,
          "internalType": "address",
          "name": "newOwner",
          "type": "address"
        }
      ],
      "name": "OwnershipTransferred",
      "type": "event"
    },
    {
      "anonymous": false,
      "inputs": [
        {
          "indexed": false,
          "internalType": "address",
          "name": "account",
          "type": "address"
        },
        {
          "indexed": false,
          "internalType": "uint256",
          "name": "shares",
          "type": "uint256"
        }
      ],
      "name": "PayeeAdded",
      "type": "event"
    },
    {
      "anonymous": false,
      "inputs": [
        {
          "indexed": false,
          "internalType": "address",
          "name": "from",
          "type": "address"
        },
        {
          "indexed": false,
          "internalType": "uint256",
          "name": "amount",
          "type": "uint256"
        }
      ],
      "name": "PaymentReceived",
      "type": "event"
    },
    {
      "anonymous": false,
      "inputs": [
        {
          "indexed": false,
          "internalType": "address",
          "name": "to",
          "type": "address"
        },
        {
          "indexed": false,
          "internalType": "uint256",
          "name": "amount",
          "type": "uint256"
        }
      ],
      "name": "PaymentReleased",
      "type": "event"
    },
    {
      "anonymous": false,
      "inputs": [
        {
          "indexed": true,
          "internalType": "address",
          "name": "from",
          "type": "address"
        },
        {
          "indexed": true,
          "internalType": "address",
          "name": "to",
          "type": "address"
        },
        {
          "indexed": true,
          "internalType": "uint256",
          "name": "tokenId",
          "type": "uint256"
        }
      ],
      "name": "Transfer",
      "type": "event"
    },
    {
      "inputs": [
        {
          "internalType": "address",
          "name": "",
          "type": "address"
        }
      ],
      "name": "_presaleClaimed",
      "outputs": [
        {
          "internalType": "uint256",
          "name": "",
          "type": "uint256"
        }
      ],
      "stateMutability": "view",
      "type": "function"
    },
    {
      "inputs": [
        {
          "internalType": "address",
          "name": "to",
          "type": "address"
        },
        {
          "internalType": "uint256",
          "name": "tokenId",
          "type": "uint256"
        }
      ],
      "name": "approve",
      "outputs": [],
      "stateMutability": "nonpayable",
      "type": "function"
    },
    {
      "inputs": [
        {
          "internalType": "address",
          "name": "owner",
          "type": "address"
        }
      ],
      "name": "balanceOf",
      "outputs": [
        {
          "internalType": "uint256",
          "name": "",
          "type": "uint256"
        }
      ],
      "stateMutability": "view",
      "type": "function"
    },
    {
      "inputs": [],
      "name": "baseExtension",
      "outputs": [
        {
          "internalType": "string",
          "name": "",
          "type": "string"
        }
      ],
      "stateMutability": "view",
      "type": "function"
    },
    {
      "inputs": [],
      "name": "baseURI",
      "outputs": [
        {
          "internalType": "string",
          "name": "",
          "type": "string"
        }
      ],
      "stateMutability": "view",
      "type": "function"
    },
    {
      "inputs": [
        {
          "internalType": "uint256",
          "name": "tokenId",
          "type": "uint256"
        }
      ],
      "name": "getApproved",
      "outputs": [
        {
          "internalType": "address",
          "name": "",
          "type": "address"
        }
      ],
      "stateMutability": "view",
      "type": "function"
    },
    {
      "inputs": [
        {
          "internalType": "address",
          "name": "owner",
          "type": "address"
        },
        {
          "internalType": "address",
          "name": "operator",
          "type": "address"
        }
      ],
      "name": "isApprovedForAll",
      "outputs": [
        {
          "internalType": "bool",
          "name": "",
          "type": "bool"
        }
      ],
      "stateMutability": "view",
      "type": "function"
    },
    {
      "inputs": [],
      "name": "maxSupply",
      "outputs": [
        {
          "internalType": "uint256",
          "name": "",
          "type": "uint256"
        }
      ],
      "stateMutability": "view",
      "type": "function"
    },
    {
      "inputs": [],
      "name": "name",
      "outputs": [
        {
          "internalType": "string",
          "name": "",
          "type": "string"
        }
      ],
      "stateMutability": "view",
      "type": "function"
    },
    {
      "inputs": [],
      "name": "notRevealedUri",
      "outputs": [
        {
          "internalType": "string",
          "name": "",
          "type": "string"
        }
      ],
      "stateMutability": "view",
      "type": "function"
    },
    {
      "inputs": [],
      "name": "owner",
      "outputs": [
        {
          "internalType": "address",
          "name": "",
          "type": "address"
        }
      ],
      "stateMutability": "view",
      "type": "function"
    },
    {
      "inputs": [
        {
          "internalType": "uint256",
          "name": "tokenId",
          "type": "uint256"
        }
      ],
      "name": "ownerOf",
      "outputs": [
        {
          "internalType": "address",
          "name": "",
          "type": "address"
        }
      ],
      "stateMutability": "view",
      "type": "function"
    },
    {
      "inputs": [],
      "name": "paused",
      "outputs": [
        {
          "internalType": "bool",
          "name": "",
          "type": "bool"
        }
      ],
      "stateMutability": "view",
      "type": "function"
    },
    {
      "inputs": [
        {
          "internalType": "uint256",
          "name": "index",
          "type": "uint256"
        }
      ],
      "name": "payee",
      "outputs": [
        {
          "internalType": "address",
          "name": "",
          "type": "address"
        }
      ],
      "stateMutability": "view",
      "type": "function"
    },
    {
      "inputs": [],
      "name": "presaleM",
      "outputs": [
        {
          "internalType": "bool",
          "name": "",
          "type": "bool"
        }
      ],
      "stateMutability": "view",
      "type": "function"
    },
    {
      "inputs": [
        {
          "internalType": "address",
          "name": "account",
          "type": "address"
        },
        {
          "internalType": "uint256",
          "name": "_amount",
          "type": "uint256"
        },
        {
          "internalType": "bytes32[]",
          "name": "_proof",
          "type": "bytes32[]"
        }
      ],
      "name": "presaleMint",
      "outputs": [],
      "stateMutability": "payable",
      "type": "function"
    },
    {
      "inputs": [],
      "name": "publicM",
      "outputs": [
        {
          "internalType": "bool",
          "name": "",
          "type": "bool"
        }
      ],
      "stateMutability": "view",
      "type": "function"
    },
    {
      "inputs": [
        {
          "internalType": "uint256",
          "name": "_amount",
          "type": "uint256"
        }
      ],
      "name": "publicSaleMint",
      "outputs": [],
      "stateMutability": "payable",
      "type": "function"
    },
    {
      "inputs": [
        {
          "internalType": "address payable",
          "name": "account",
          "type": "address"
        }
      ],
      "name": "release",
      "outputs": [],
      "stateMutability": "nonpayable",
      "type": "function"
    },
    {
      "inputs": [
        {
          "internalType": "contract IERC20",
          "name": "token",
          "type": "address"
        },
        {
          "internalType": "address",
          "name": "account",
          "type": "address"
        }
      ],
      "name": "release",
      "outputs": [],
      "stateMutability": "nonpayable",
      "type": "function"
    },
    {
      "inputs": [
        {
          "internalType": "contract IERC20",
          "name": "token",
          "type": "address"
        },
        {
          "internalType": "address",
          "name": "account",
          "type": "address"
        }
      ],
      "name": "released",
      "outputs": [
        {
          "internalType": "uint256",
          "name": "",
          "type": "uint256"
        }
      ],
      "stateMutability": "view",
      "type": "function"
    },
    {
      "inputs": [
        {
          "internalType": "address",
          "name": "account",
          "type": "address"
        }
      ],
      "name": "released",
      "outputs": [
        {
          "internalType": "uint256",
          "name": "",
          "type": "uint256"
        }
      ],
      "stateMutability": "view",
      "type": "function"
    },
    {
      "inputs": [],
      "name": "renounceOwnership",
      "outputs": [],
      "stateMutability": "nonpayable",
      "type": "function"
    },
    {
      "inputs": [],
      "name": "reveal",
      "outputs": [],
      "stateMutability": "nonpayable",
      "type": "function"
    },
    {
      "inputs": [],
      "name": "revealed",
      "outputs": [
        {
          "internalType": "bool",
          "name": "",
          "type": "bool"
        }
      ],
      "stateMutability": "view",
      "type": "function"
    },
    {
      "inputs": [],
      "name": "root",
      "outputs": [
        {
          "internalType": "bytes32",
          "name": "",
          "type": "bytes32"
        }
      ],
      "stateMutability": "view",
      "type": "function"
    },
    {
      "inputs": [
        {
          "internalType": "address",
          "name": "from",
          "type": "address"
        },
        {
          "internalType": "address",
          "name": "to",
          "type": "address"
        },
        {
          "internalType": "uint256",
          "name": "tokenId",
          "type": "uint256"
        }
      ],
      "name": "safeTransferFrom",
      "outputs": [],
      "stateMutability": "nonpayable",
      "type": "function"
    },
    {
      "inputs": [
        {
          "internalType": "address",
          "name": "from",
          "type": "address"
        },
        {
          "internalType": "address",
          "name": "to",
          "type": "address"
        },
        {
          "internalType": "uint256",
          "name": "tokenId",
          "type": "uint256"
        },
        {
          "internalType": "bytes",
          "name": "_data",
          "type": "bytes"
        }
      ],
      "name": "safeTransferFrom",
      "outputs": [],
      "stateMutability": "nonpayable",
      "type": "function"
    },
    {
      "inputs": [
        {
          "internalType": "address",
          "name": "operator",
          "type": "address"
        },
        {
          "internalType": "bool",
          "name": "approved",
          "type": "bool"
        }
      ],
      "name": "setApprovalForAll",
      "outputs": [],
      "stateMutability": "nonpayable",
      "type": "function"
    },
    {
      "inputs": [
        {
          "internalType": "string",
          "name": "_newBaseExtension",
          "type": "string"
        }
      ],
      "name": "setBaseExtension",
      "outputs": [],
      "stateMutability": "nonpayable",
      "type": "function"
    },
    {
      "inputs": [
        {
          "internalType": "string",
          "name": "_tokenBaseURI",
          "type": "string"
        }
      ],
      "name": "setBaseURI",
      "outputs": [],
      "stateMutability": "nonpayable",
      "type": "function"
    },
    {
      "inputs": [
        {
          "internalType": "bytes32",
          "name": "merkleroot",
          "type": "bytes32"
        }
      ],
      "name": "setMerkleRoot",
      "outputs": [],
      "stateMutability": "nonpayable",
      "type": "function"
    },
    {
      "inputs": [
        {
          "internalType": "string",
          "name": "_notRevealedURI",
          "type": "string"
        }
      ],
      "name": "setNotRevealedURI",
      "outputs": [],
      "stateMutability": "nonpayable",
      "type": "function"
    },
    {
      "inputs": [
        {
          "internalType": "address",
          "name": "account",
          "type": "address"
        }
      ],
      "name": "shares",
      "outputs": [
        {
          "internalType": "uint256",
          "name": "",
          "type": "uint256"
        }
      ],
      "stateMutability": "view",
      "type": "function"
    },
    {
      "inputs": [
        {
          "internalType": "bytes4",
          "name": "interfaceId",
          "type": "bytes4"
        }
      ],
      "name": "supportsInterface",
      "outputs": [
        {
          "internalType": "bool",
          "name": "",
          "type": "bool"
        }
      ],
      "stateMutability": "view",
      "type": "function"
    },
    {
      "inputs": [],
      "name": "symbol",
      "outputs": [
        {
          "internalType": "string",
          "name": "",
          "type": "string"
        }
      ],
      "stateMutability": "view",
      "type": "function"
    },
    {
      "inputs": [],
      "name": "togglePause",
      "outputs": [],
      "stateMutability": "nonpayable",
      "type": "function"
    },
    {
      "inputs": [],
      "name": "togglePresale",
      "outputs": [],
      "stateMutability": "nonpayable",
      "type": "function"
    },
    {
      "inputs": [],
      "name": "togglePublicSale",
      "outputs": [],
      "stateMutability": "nonpayable",
      "type": "function"
    },
    {
      "inputs": [
        {
          "internalType": "uint256",
          "name": "tokenId",
          "type": "uint256"
        }
      ],
      "name": "tokenURI",
      "outputs": [
        {
          "internalType": "string",
          "name": "",
          "type": "string"
        }
      ],
      "stateMutability": "view",
      "type": "function"
    },
    {
      "inputs": [
        {
          "internalType": "contract IERC20",
          "name": "token",
          "type": "address"
        }
      ],
      "name": "totalReleased",
      "outputs": [
        {
          "internalType": "uint256",
          "name": "",
          "type": "uint256"
        }
      ],
      "stateMutability": "view",
      "type": "function"
    },
    {
      "inputs": [],
      "name": "totalReleased",
      "outputs": [
        {
          "internalType": "uint256",
          "name": "",
          "type": "uint256"
        }
      ],
      "stateMutability": "view",
      "type": "function"
    },
    {
      "inputs": [],
      "name": "totalShares",
      "outputs": [
        {
          "internalType": "uint256",
          "name": "",
          "type": "uint256"
        }
      ],
      "stateMutability": "view",
      "type": "function"
    },
    {
      "inputs": [],
      "name": "totalSupply",
      "outputs": [
        {
          "internalType": "uint256",
          "name": "",
          "type": "uint256"
        }
      ],
      "stateMutability": "view",
      "type": "function"
    },
    {
      "inputs": [
        {
          "internalType": "address",
          "name": "from",
          "type": "address"
        },
        {
          "internalType": "address",
          "name": "to",
          "type": "address"
        },
        {
          "internalType": "uint256",
          "name": "tokenId",
          "type": "uint256"
        }
      ],
      "name": "transferFrom",
      "outputs": [],
      "stateMutability": "nonpayable",
      "type": "function"
    },
    {
      "inputs": [
        {
          "internalType": "address",
          "name": "newOwner",
          "type": "address"
        }
      ],
      "name": "transferOwnership",
      "outputs": [],
      "stateMutability": "nonpayable",
      "type": "function"
    },
    {
      "stateMutability": "payable",
      "type": "receive"
    }
  ],
  "bytecode": "0x60fa601155610100604052604160808181529062003a5d60a03980516200002f9160139160209091019062000674565b5060408051808201909152600580825264173539b7b760d91b60209092019182526200005e9160149162000674565b506015805463ffffffff19169055600360165566b1a2bc2ec500006018556040805180820190915260288152603c6020820152620000a190601a90600262000703565b506040805180820190915273fb069cabf9cc5f1543fe34ad9eba68ed3f94690a8152732f0c0205b4b990508543bac2c8e97a557bb8290d6020820152620000ed90601b90600262000746565b50348015620000fb57600080fd5b5060405162003a9e38038062003a9e8339810160408190526200011e91620007e8565b601b8054806020026020016040519081016040528092919081815260200182805480156200017657602002820191906000526020600020905b81546001600160a01b0316815260019091019060200180831162000157575b5050505050601a805480602002602001604051908101604052809291908181526020018280548015620001c957602002820191906000526020600020905b815481526020019060010190808311620001b4575b505060408051808201825260088152674e756b656441706560c01b60208083019182528351808501909452600384526241504560e81b9084015281519195509193506200021b92506000919062000674565b5080516200023190600190602084019062000674565b5050506200024e62000248620003bb60201b60201c565b620003bf565b60016007558051825114620002c55760405162461bcd60e51b815260206004820152603260248201527f5061796d656e7453706c69747465723a2070617965657320616e6420736861726044820152710cae640d8cadccee8d040dad2e6dac2e8c6d60731b60648201526084015b60405180910390fd5b6000825111620003185760405162461bcd60e51b815260206004820152601a60248201527f5061796d656e7453706c69747465723a206e6f207061796565730000000000006044820152606401620002bc565b60005b825181101562000384576200036f8382815181106200033e576200033e620008e3565b60200260200101518383815181106200035b576200035b620008e3565b60200260200101516200041160201b60201c565b806200037b816200090f565b9150506200031b565b505050600f829055601080546001600160a01b0319166001600160a01b038316179055620003b283620005ff565b50505062000985565b3390565b600680546001600160a01b038381166001600160a01b0319831681179093556040519116919082907f8be0079c531659141344cd1fd0a4f28419497f9722a3daafe3b4186f6b6457e090600090a35050565b6001600160a01b0382166200047e5760405162461bcd60e51b815260206004820152602c60248201527f5061796d656e7453706c69747465723a206163636f756e74206973207468652060448201526b7a65726f206164647265737360a01b6064820152608401620002bc565b60008111620004d05760405162461bcd60e51b815260206004820152601d60248201527f5061796d656e7453706c69747465723a207368617265732061726520300000006044820152606401620002bc565b6001600160a01b0382166000908152600a6020526040902054156200054c5760405162461bcd60e51b815260206004820152602b60248201527f5061796d656e7453706c69747465723a206163636f756e7420616c726561647960448201526a206861732073686172657360a81b6064820152608401620002bc565b600c8054600181019091557fdf6966c971051c3d54ec59162606531493a51404a002842f56009d7e5cf4a8c70180546001600160a01b0319166001600160a01b0384169081179091556000908152600a60205260409020819055600854620005b69082906200092d565b600855604080516001600160a01b0384168152602081018390527f40c340f65e17194d14ddddb073d3c9f888e3cb52b5aae0c6c7706b4fbc905fac910160405180910390a15050565b6006546001600160a01b031633146200065b5760405162461bcd60e51b815260206004820181905260248201527f4f776e61626c653a2063616c6c6572206973206e6f7420746865206f776e65726044820152606401620002bc565b80516200067090601290602084019062000674565b5050565b828054620006829062000948565b90600052602060002090601f016020900481019282620006a65760008555620006f1565b82601f10620006c157805160ff1916838001178555620006f1565b82800160010185558215620006f1579182015b82811115620006f1578251825591602001919060010190620006d4565b50620006ff9291506200079e565b5090565b828054828255906000526020600020908101928215620006f1579160200282015b82811115620006f1578251829060ff1690559160200191906001019062000724565b828054828255906000526020600020908101928215620006f1579160200282015b82811115620006f157825182546001600160a01b0319166001600160a01b0390911617825560209092019160019091019062000767565b5b80821115620006ff57600081556001016200079f565b634e487b7160e01b600052604160045260246000fd5b80516001600160a01b0381168114620007e357600080fd5b919050565b600080600060608486031215620007fe57600080fd5b83516001600160401b03808211156200081657600080fd5b818601915086601f8301126200082b57600080fd5b815181811115620008405762000840620007b5565b604051601f8201601f19908116603f011681019083821181831017156200086b576200086b620007b5565b816040528281526020935089848487010111156200088857600080fd5b600091505b82821015620008ac57848201840151818301850152908301906200088d565b82821115620008be5760008484830101525b8097505050508086015193505050620008da60408501620007cb565b90509250925092565b634e487b7160e01b600052603260045260246000fd5b634e487b7160e01b600052601160045260246000fd5b6000600019821415620009265762000926620008f9565b5060010190565b60008219821115620009435762000943620008f9565b500190565b600181811c908216806200095d57607f821691505b602082108114156200097f57634e487b7160e01b600052602260045260246000fd5b50919050565b6130c880620009956000396000f3fe6080604052600436106102815760003560e01c80638cc4de191161014f578063c6682862116100c1578063e222c7f91161007a578063e222c7f9146107e9578063e33b7de3146107fe578063e985e9c514610813578063ebf0c71714610833578063f2c4ce1e14610849578063f2fde38b1461086957600080fd5b8063c668286214610712578063c87b56dd14610727578063ce7c2ac214610747578063d5abeb011461077d578063d79779b214610793578063da3ef23f146107c957600080fd5b8063a22cb46511610113578063a22cb46514610674578063a45063c014610694578063a475b5dd146106b5578063b3ab66b0146106ca578063b88d4fde146106dd578063c4ae3168146106fd57600080fd5b80638cc4de19146105cb5780638da5cb5b146105f8578063954dc3e31461061657806395d89b41146106295780639852595c1461063e57600080fd5b8063406072a9116101f35780636352211e116101ac5780636352211e146105215780636c0360eb1461054157806370a0823114610556578063715018a6146105765780637cb647591461058b5780638b83209b146105ab57600080fd5b8063406072a91461044257806342842e0e1461048857806348b75044146104a857806351830227146104c857806355f804b3146104e75780635c975abb1461050757600080fd5b80631798d58b116102455780631798d58b1461039557806318160ddd146103b557806319165587146103d857806323b872dd146103f857806334393743146104185780633a98ef391461042d57600080fd5b806301ffc9a7146102cf57806306fdde0314610304578063081812fc14610326578063081c8c441461035e578063095ea7b31461037357600080fd5b366102ca577f6ef95f06320e7a25a04a175ca677b7052bdd97131872c2192525a629f51be77033604080516001600160a01b0390921682523460208301520160405180910390a1005b600080fd5b3480156102db57600080fd5b506102ef6102ea366004612885565b610889565b60405190151581526020015b60405180910390f35b34801561031057600080fd5b506103196108db565b6040516102fb91906128fa565b34801561033257600080fd5b5061034661034136600461290d565b61096d565b6040516001600160a01b0390911681526020016102fb565b34801561036a57600080fd5b50610319610a07565b34801561037f57600080fd5b5061039361038e36600461293b565b610a95565b005b3480156103a157600080fd5b506015546102ef9062010000900460ff1681565b3480156103c157600080fd5b506103ca610bab565b6040519081526020016102fb565b3480156103e457600080fd5b506103936103f3366004612967565b610bbb565b34801561040457600080fd5b50610393610413366004612984565b610ce9565b34801561042457600080fd5b50610393610d1a565b34801561043957600080fd5b506008546103ca565b34801561044e57600080fd5b506103ca61045d3660046129c5565b6001600160a01b039182166000908152600e6020908152604080832093909416825291909152205490565b34801561049457600080fd5b506103936104a3366004612984565b610d63565b3480156104b457600080fd5b506103936104c33660046129c5565b610d7e565b3480156104d457600080fd5b506015546102ef90610100900460ff1681565b3480156104f357600080fd5b50610393610502366004612a8a565b610f66565b34801561051357600080fd5b506015546102ef9060ff1681565b34801561052d57600080fd5b5061034661053c36600461290d565b610fa7565b34801561054d57600080fd5b5061031961101e565b34801561056257600080fd5b506103ca610571366004612967565b61102b565b34801561058257600080fd5b506103936110b2565b34801561059757600080fd5b506103936105a636600461290d565b6110e8565b3480156105b757600080fd5b506103466105c636600461290d565b611117565b3480156105d757600080fd5b506103ca6105e6366004612967565b60176020526000908152604090205481565b34801561060457600080fd5b506006546001600160a01b0316610346565b610393610624366004612ad3565b611147565b34801561063557600080fd5b50610319611471565b34801561064a57600080fd5b506103ca610659366004612967565b6001600160a01b03166000908152600b602052604090205490565b34801561068057600080fd5b5061039361068f366004612b6d565b611480565b3480156106a057600080fd5b506015546102ef906301000000900460ff1681565b3480156106c157600080fd5b5061039361148b565b6103936106d836600461290d565b6114c6565b3480156106e957600080fd5b506103936106f8366004612b9b565b6116c4565b34801561070957600080fd5b506103936116fc565b34801561071e57600080fd5b5061031961173a565b34801561073357600080fd5b5061031961074236600461290d565b611747565b34801561075357600080fd5b506103ca610762366004612967565b6001600160a01b03166000908152600a602052604090205490565b34801561078957600080fd5b506103ca60115481565b34801561079f57600080fd5b506103ca6107ae366004612967565b6001600160a01b03166000908152600d602052604090205490565b3480156107d557600080fd5b506103936107e4366004612a8a565b6118c6565b3480156107f557600080fd5b50610393611903565b34801561080a57600080fd5b506009546103ca565b34801561081f57600080fd5b506102ef61082e3660046129c5565b61194e565b34801561083f57600080fd5b506103ca600f5481565b34801561085557600080fd5b50610393610864366004612a8a565b611a1e565b34801561087557600080fd5b50610393610884366004612967565b611a5b565b60006001600160e01b031982166380ac58cd60e01b14806108ba57506001600160e01b03198216635b5e139f60e01b145b806108d557506301ffc9a760e01b6001600160e01b03198316145b92915050565b6060600080546108ea90612c1b565b80601f016020809104026020016040519081016040528092919081815260200182805461091690612c1b565b80156109635780601f1061093857610100808354040283529160200191610963565b820191906000526020600020905b81548152906001019060200180831161094657829003601f168201915b5050505050905090565b6000818152600260205260408120546001600160a01b03166109eb5760405162461bcd60e51b815260206004820152602c60248201527f4552433732313a20617070726f76656420717565727920666f72206e6f6e657860448201526b34b9ba32b73a103a37b5b2b760a11b60648201526084015b60405180910390fd5b506000908152600460205260409020546001600160a01b031690565b60138054610a1490612c1b565b80601f0160208091040260200160405190810160405280929190818152602001828054610a4090612c1b565b8015610a8d5780601f10610a6257610100808354040283529160200191610a8d565b820191906000526020600020905b815481529060010190602001808311610a7057829003601f168201915b505050505081565b6000610aa082610fa7565b9050806001600160a01b0316836001600160a01b03161415610b0e5760405162461bcd60e51b815260206004820152602160248201527f4552433732313a20617070726f76616c20746f2063757272656e74206f776e656044820152603960f91b60648201526084016109e2565b336001600160a01b0382161480610b2a5750610b2a813361194e565b610b9c5760405162461bcd60e51b815260206004820152603860248201527f4552433732313a20617070726f76652063616c6c6572206973206e6f74206f7760448201527f6e6572206e6f7220617070726f76656420666f7220616c6c000000000000000060648201526084016109e2565b610ba68383611af6565b505050565b6000610bb660195490565b905090565b6001600160a01b0381166000908152600a6020526040902054610bf05760405162461bcd60e51b81526004016109e290612c56565b6000610bfb60095490565b610c059047612cb2565b90506000610c328383610c2d866001600160a01b03166000908152600b602052604090205490565b611b64565b905080610c515760405162461bcd60e51b81526004016109e290612cca565b6001600160a01b0383166000908152600b602052604081208054839290610c79908490612cb2565b925050819055508060096000828254610c929190612cb2565b90915550610ca290508382611ba2565b604080516001600160a01b0385168152602081018390527fdf20fd1e76bc69d672e4814fafb2c449bba3a5369d8359adf9e05e6fde87b056910160405180910390a1505050565b610cf33382611cbb565b610d0f5760405162461bcd60e51b81526004016109e290612d15565b610ba6838383611d91565b6006546001600160a01b03163314610d445760405162461bcd60e51b81526004016109e290612d66565b6015805462ff0000198116620100009182900460ff1615909102179055565b610ba6838383604051806020016040528060008152506116c4565b6001600160a01b0381166000908152600a6020526040902054610db35760405162461bcd60e51b81526004016109e290612c56565b6001600160a01b0382166000908152600d60205260408120546040516370a0823160e01b81523060048201526001600160a01b038516906370a082319060240160206040518083038186803b158015610e0b57600080fd5b505afa158015610e1f573d6000803e3d6000fd5b505050506040513d601f19601f82011682018060405250810190610e439190612d9b565b610e4d9190612cb2565b90506000610e868383610c2d87876001600160a01b039182166000908152600e6020908152604080832093909416825291909152205490565b905080610ea55760405162461bcd60e51b81526004016109e290612cca565b6001600160a01b038085166000908152600e6020908152604080832093871683529290529081208054839290610edc908490612cb2565b90915550506001600160a01b0384166000908152600d602052604081208054839290610f09908490612cb2565b90915550610f1a9050848483611f2d565b604080516001600160a01b038581168252602082018490528616917f3be5b7a71e84ed12875d241991c70855ac5817d847039e17a9d895c1ceb0f18a910160405180910390a250505050565b6006546001600160a01b03163314610f905760405162461bcd60e51b81526004016109e290612d66565b8051610fa39060129060208401906127d6565b5050565b6000818152600260205260408120546001600160a01b0316806108d55760405162461bcd60e51b815260206004820152602960248201527f4552433732313a206f776e657220717565727920666f72206e6f6e657869737460448201526832b73a103a37b5b2b760b91b60648201526084016109e2565b60128054610a1490612c1b565b60006001600160a01b0382166110965760405162461bcd60e51b815260206004820152602a60248201527f4552433732313a2062616c616e636520717565727920666f7220746865207a65604482015269726f206164647265737360b01b60648201526084016109e2565b506001600160a01b031660009081526003602052604090205490565b6006546001600160a01b031633146110dc5760405162461bcd60e51b81526004016109e290612d66565b6110e66000611f7f565b565b6006546001600160a01b031633146111125760405162461bcd60e51b81526004016109e290612d66565b600f55565b6000600c828154811061112c5761112c612db4565b6000918252602090912001546001600160a01b031692915050565b81816111be82828080602002602001604051908101604052809392919081815260200183836020028082843760009201919091525050600f546040516bffffffffffffffffffffffff193360601b166020820152909250603401905060405160208183030381529060405280519060200120611fd1565b15156001146111df5760405162461bcd60e51b81526004016109e290612dca565b3332146111fe5760405162461bcd60e51b81526004016109e290612dca565b336001600160a01b0387161461124e5760405162461bcd60e51b8152602060048201526015602482015274139d5ad959105c194e88139bdd08185b1b1bddd959605a1b60448201526064016109e2565b60155462010000900460ff166112a65760405162461bcd60e51b815260206004820152601860248201527f4e756b65644170653a2050726573616c65206973204f4646000000000000000060448201526064016109e2565b60155460ff16156112f95760405162461bcd60e51b815260206004820152601c60248201527f4e756b65644170653a20436f6e7472616374206973207061757365640000000060448201526064016109e2565b60165485111561131b5760405162461bcd60e51b81526004016109e290612df6565b60165433600090815260176020526040902054611339908790612cb2565b11156113575760405162461bcd60e51b81526004016109e290612df6565b600061136260195490565b6011549091506113728783612cb2565b11156113c05760405162461bcd60e51b815260206004820152601d60248201527f4e756b65644170653a206d617820737570706c7920657863656564656400000060448201526064016109e2565b34866018546113cf9190612e3d565b111561141d5760405162461bcd60e51b815260206004820181905260248201527f4e756b65644170653a204e6f7420656e6f756768206574686572732073656e7460448201526064016109e2565b336000908152601760205260408120805488929061143c908490612cb2565b90915550600090505b8681101561146757611455611fe7565b8061145f81612e5c565b915050611445565b5050505050505050565b6060600180546108ea90612c1b565b610fa333838361206c565b6006546001600160a01b031633146114b55760405162461bcd60e51b81526004016109e290612d66565b6015805461ff001916610100179055565b3332146114e55760405162461bcd60e51b81526004016109e290612dca565b6015546301000000900460ff1661153e5760405162461bcd60e51b815260206004820152601b60248201527f4e756b65644170653a205075626c696353616c65206973204f4646000000000060448201526064016109e2565b60155460ff16156115915760405162461bcd60e51b815260206004820152601c60248201527f4e756b65644170653a20436f6e7472616374206973207061757365640000000060448201526064016109e2565b600081116115d95760405162461bcd60e51b8152602060048201526015602482015274139d5ad959105c194e881e995c9bc8185b5bdd5b9d605a1b60448201526064016109e2565b60006115e460195490565b6011549091506115f48383612cb2565b11156116425760405162461bcd60e51b815260206004820152601d60248201527f4e756b65644170653a204d617820737570706c7920657863656564656400000060448201526064016109e2565b34826018546116519190612e3d565b111561169f5760405162461bcd60e51b815260206004820181905260248201527f4e756b65644170653a204e6f7420656e6f756768206574686572732073656e7460448201526064016109e2565b60005b82811015610ba6576116b2611fe7565b806116bc81612e5c565b9150506116a2565b6116ce3383611cbb565b6116ea5760405162461bcd60e51b81526004016109e290612d15565b6116f68484848461213b565b50505050565b6006546001600160a01b031633146117265760405162461bcd60e51b81526004016109e290612d66565b6015805460ff19811660ff90911615179055565b60148054610a1490612c1b565b6000818152600260205260409020546060906001600160a01b03166117c65760405162461bcd60e51b815260206004820152602f60248201527f4552433732314d657461646174613a2055524920717565727920666f72206e6f60448201526e3732bc34b9ba32b73a103a37b5b2b760891b60648201526084016109e2565b601554610100900460ff1661186757601380546117e290612c1b565b80601f016020809104026020016040519081016040528092919081815260200182805461180e90612c1b565b801561185b5780601f106118305761010080835404028352916020019161185b565b820191906000526020600020905b81548152906001019060200180831161183e57829003601f168201915b50505050509050919050565b600061187161216e565b9050600081511161189157604051806020016040528060008152506118bf565b8061189b8461217d565b60146040516020016118af93929190612e77565b6040516020818303038152906040525b9392505050565b6006546001600160a01b031633146118f05760405162461bcd60e51b81526004016109e290612d66565b8051610fa39060149060208401906127d6565b6006546001600160a01b0316331461192d5760405162461bcd60e51b81526004016109e290612d66565b6015805463ff00000019811663010000009182900460ff1615909102179055565b60105460405163c455279160e01b81526001600160a01b03848116600483015260009281169190841690829063c45527919060240160206040518083038186803b15801561199b57600080fd5b505afa1580156119af573d6000803e3d6000fd5b505050506040513d601f19601f820116820180604052508101906119d39190612f3b565b6001600160a01b031614156119ec5760019150506108d5565b6001600160a01b0380851660009081526005602090815260408083209387168352929052205460ff165b949350505050565b6006546001600160a01b03163314611a485760405162461bcd60e51b81526004016109e290612d66565b8051610fa39060139060208401906127d6565b6006546001600160a01b03163314611a855760405162461bcd60e51b81526004016109e290612d66565b6001600160a01b038116611aea5760405162461bcd60e51b815260206004820152602660248201527f4f776e61626c653a206e6577206f776e657220697320746865207a65726f206160448201526564647265737360d01b60648201526084016109e2565b611af381611f7f565b50565b600081815260046020526040902080546001600160a01b0319166001600160a01b0384169081179091558190611b2b82610fa7565b6001600160a01b03167f8c5be1e5ebec7d5bd14f71427d1e84f3dd0314c0f7b2291e5b200ac8c7c3b92560405160405180910390a45050565b6008546001600160a01b0384166000908152600a602052604081205490918391611b8e9086612e3d565b611b989190612f6e565b611a169190612f82565b80471015611bf25760405162461bcd60e51b815260206004820152601d60248201527f416464726573733a20696e73756666696369656e742062616c616e636500000060448201526064016109e2565b6000826001600160a01b03168260405160006040518083038185875af1925050503d8060008114611c3f576040519150601f19603f3d011682016040523d82523d6000602084013e611c44565b606091505b5050905080610ba65760405162461bcd60e51b815260206004820152603a60248201527f416464726573733a20756e61626c6520746f2073656e642076616c75652c207260448201527f6563697069656e74206d6179206861766520726576657274656400000000000060648201526084016109e2565b6000818152600260205260408120546001600160a01b0316611d345760405162461bcd60e51b815260206004820152602c60248201527f4552433732313a206f70657261746f7220717565727920666f72206e6f6e657860448201526b34b9ba32b73a103a37b5b2b760a11b60648201526084016109e2565b6000611d3f83610fa7565b9050806001600160a01b0316846001600160a01b03161480611d665750611d66818561194e565b80611a165750836001600160a01b0316611d7f8461096d565b6001600160a01b031614949350505050565b826001600160a01b0316611da482610fa7565b6001600160a01b031614611e085760405162461bcd60e51b815260206004820152602560248201527f4552433732313a207472616e736665722066726f6d20696e636f72726563742060448201526437bbb732b960d91b60648201526084016109e2565b6001600160a01b038216611e6a5760405162461bcd60e51b8152602060048201526024808201527f4552433732313a207472616e7366657220746f20746865207a65726f206164646044820152637265737360e01b60648201526084016109e2565b611e75600082611af6565b6001600160a01b0383166000908152600360205260408120805460019290611e9e908490612f82565b90915550506001600160a01b0382166000908152600360205260408120805460019290611ecc908490612cb2565b909155505060008181526002602052604080822080546001600160a01b0319166001600160a01b0386811691821790925591518493918716917fddf252ad1be2c89b69c2b068fc378daa952ba7f163c4a11628f55a4df523b3ef91a4505050565b604080516001600160a01b038416602482015260448082018490528251808303909101815260649091019091526020810180516001600160e01b031663a9059cbb60e01b179052610ba690849061227b565b600680546001600160a01b038381166001600160a01b0319831681179093556040519116919082907f8be0079c531659141344cd1fd0a4f28419497f9722a3daafe3b4186f6b6457e090600090a35050565b600082611fde858461234d565b14949350505050565b6002600754141561203a5760405162461bcd60e51b815260206004820152601f60248201527f5265656e7472616e637947756172643a207265656e7472616e742063616c6c0060448201526064016109e2565b600260075561204d601980546001019055565b600061205860195490565b905061206433826123c1565b506001600755565b816001600160a01b0316836001600160a01b031614156120ce5760405162461bcd60e51b815260206004820152601960248201527f4552433732313a20617070726f766520746f2063616c6c65720000000000000060448201526064016109e2565b6001600160a01b03838116600081815260056020908152604080832094871680845294825291829020805460ff191686151590811790915591519182527f17307eab39ab6107e8899845ad3d59bd9653f200f220920489ca2b5937696c31910160405180910390a3505050565b612146848484611d91565b612152848484846123db565b6116f65760405162461bcd60e51b81526004016109e290612f99565b6060601280546108ea90612c1b565b6060816121a15750506040805180820190915260018152600360fc1b602082015290565b8160005b81156121cb57806121b581612e5c565b91506121c49050600a83612f6e565b91506121a5565b60008167ffffffffffffffff8111156121e6576121e66129fe565b6040519080825280601f01601f191660200182016040528015612210576020820181803683370190505b5090505b8415611a1657612225600183612f82565b9150612232600a86612feb565b61223d906030612cb2565b60f81b81838151811061225257612252612db4565b60200101906001600160f81b031916908160001a905350612274600a86612f6e565b9450612214565b60006122d0826040518060400160405280602081526020017f5361666545524332303a206c6f772d6c6576656c2063616c6c206661696c6564815250856001600160a01b03166124e89092919063ffffffff16565b805190915015610ba657808060200190518101906122ee9190612fff565b610ba65760405162461bcd60e51b815260206004820152602a60248201527f5361666545524332303a204552433230206f7065726174696f6e20646964206e6044820152691bdd081cdd58d8d9595960b21b60648201526084016109e2565b600081815b84518110156123b957600085828151811061236f5761236f612db4565b6020026020010151905080831161239557600083815260208290526040902092506123a6565b600081815260208490526040902092505b50806123b181612e5c565b915050612352565b509392505050565b610fa38282604051806020016040528060008152506124f7565b60006001600160a01b0384163b156124dd57604051630a85bd0160e11b81526001600160a01b0385169063150b7a029061241f90339089908890889060040161301c565b602060405180830381600087803b15801561243957600080fd5b505af1925050508015612469575060408051601f3d908101601f1916820190925261246691810190613059565b60015b6124c3573d808015612497576040519150601f19603f3d011682016040523d82523d6000602084013e61249c565b606091505b5080516124bb5760405162461bcd60e51b81526004016109e290612f99565b805181602001fd5b6001600160e01b031916630a85bd0160e11b149050611a16565b506001949350505050565b6060611a16848460008561252a565b612501838361265b565b61250e60008484846123db565b610ba65760405162461bcd60e51b81526004016109e290612f99565b60608247101561258b5760405162461bcd60e51b815260206004820152602660248201527f416464726573733a20696e73756666696369656e742062616c616e636520666f6044820152651c8818d85b1b60d21b60648201526084016109e2565b6001600160a01b0385163b6125e25760405162461bcd60e51b815260206004820152601d60248201527f416464726573733a2063616c6c20746f206e6f6e2d636f6e747261637400000060448201526064016109e2565b600080866001600160a01b031685876040516125fe9190613076565b60006040518083038185875af1925050503d806000811461263b576040519150601f19603f3d011682016040523d82523d6000602084013e612640565b606091505b509150915061265082828661279d565b979650505050505050565b6001600160a01b0382166126b15760405162461bcd60e51b815260206004820181905260248201527f4552433732313a206d696e7420746f20746865207a65726f206164647265737360448201526064016109e2565b6000818152600260205260409020546001600160a01b0316156127165760405162461bcd60e51b815260206004820152601c60248201527f4552433732313a20746f6b656e20616c7265616479206d696e7465640000000060448201526064016109e2565b6001600160a01b038216600090815260036020526040812080546001929061273f908490612cb2565b909155505060008181526002602052604080822080546001600160a01b0319166001600160a01b03861690811790915590518392907fddf252ad1be2c89b69c2b068fc378daa952ba7f163c4a11628f55a4df523b3ef908290a45050565b606083156127ac5750816118bf565b8251156127bc5782518084602001fd5b8160405162461bcd60e51b81526004016109e291906128fa565b8280546127e290612c1b565b90600052602060002090601f016020900481019282612804576000855561284a565b82601f1061281d57805160ff191683800117855561284a565b8280016001018555821561284a579182015b8281111561284a57825182559160200191906001019061282f565b5061285692915061285a565b5090565b5b80821115612856576000815560010161285b565b6001600160e01b031981168114611af357600080fd5b60006020828403121561289757600080fd5b81356118bf8161286f565b60005b838110156128bd5781810151838201526020016128a5565b838111156116f65750506000910152565b600081518084526128e68160208601602086016128a2565b601f01601f19169290920160200192915050565b6020815260006118bf60208301846128ce565b60006020828403121561291f57600080fd5b5035919050565b6001600160a01b0381168114611af357600080fd5b6000806040838503121561294e57600080fd5b823561295981612926565b946020939093013593505050565b60006020828403121561297957600080fd5b81356118bf81612926565b60008060006060848603121561299957600080fd5b83356129a481612926565b925060208401356129b481612926565b929592945050506040919091013590565b600080604083850312156129d857600080fd5b82356129e381612926565b915060208301356129f381612926565b809150509250929050565b634e487b7160e01b600052604160045260246000fd5b600067ffffffffffffffff80841115612a2f57612a2f6129fe565b604051601f8501601f19908116603f01168101908282118183101715612a5757612a576129fe565b81604052809350858152868686011115612a7057600080fd5b858560208301376000602087830101525050509392505050565b600060208284031215612a9c57600080fd5b813567ffffffffffffffff811115612ab357600080fd5b8201601f81018413612ac457600080fd5b611a1684823560208401612a14565b60008060008060608587031215612ae957600080fd5b8435612af481612926565b935060208501359250604085013567ffffffffffffffff80821115612b1857600080fd5b818701915087601f830112612b2c57600080fd5b813581811115612b3b57600080fd5b8860208260051b8501011115612b5057600080fd5b95989497505060200194505050565b8015158114611af357600080fd5b60008060408385031215612b8057600080fd5b8235612b8b81612926565b915060208301356129f381612b5f565b60008060008060808587031215612bb157600080fd5b8435612bbc81612926565b93506020850135612bcc81612926565b925060408501359150606085013567ffffffffffffffff811115612bef57600080fd5b8501601f81018713612c0057600080fd5b612c0f87823560208401612a14565b91505092959194509250565b600181811c90821680612c2f57607f821691505b60208210811415612c5057634e487b7160e01b600052602260045260246000fd5b50919050565b60208082526026908201527f5061796d656e7453706c69747465723a206163636f756e7420686173206e6f2060408201526573686172657360d01b606082015260800190565b634e487b7160e01b600052601160045260246000fd5b60008219821115612cc557612cc5612c9c565b500190565b6020808252602b908201527f5061796d656e7453706c69747465723a206163636f756e74206973206e6f742060408201526a191d59481c185e5b595b9d60aa1b606082015260800190565b60208082526031908201527f4552433732313a207472616e736665722063616c6c6572206973206e6f74206f6040820152701ddb995c881b9bdc88185c1c1c9bdd9959607a1b606082015260800190565b6020808252818101527f4f776e61626c653a2063616c6c6572206973206e6f7420746865206f776e6572604082015260600190565b600060208284031215612dad57600080fd5b5051919050565b634e487b7160e01b600052603260045260246000fd5b6020808252601290820152712737ba1030b63637bbb2b21037b934b3b4b760711b604082015260600190565b60208082526027908201527f4e756b65644170653a20596f752063616e2774206d696e7420736f206d75636860408201526620746f6b656e7360c81b606082015260800190565b6000816000190483118215151615612e5757612e57612c9c565b500290565b6000600019821415612e7057612e70612c9c565b5060010190565b600084516020612e8a8285838a016128a2565b855191840191612e9d8184848a016128a2565b8554920191600090600181811c9080831680612eba57607f831692505b858310811415612ed857634e487b7160e01b85526022600452602485fd5b808015612eec5760018114612efd57612f2a565b60ff19851688528388019550612f2a565b60008b81526020902060005b85811015612f225781548a820152908401908801612f09565b505083880195505b50939b9a5050505050505050505050565b600060208284031215612f4d57600080fd5b81516118bf81612926565b634e487b7160e01b600052601260045260246000fd5b600082612f7d57612f7d612f58565b500490565b600082821015612f9457612f94612c9c565b500390565b60208082526032908201527f4552433732313a207472616e7366657220746f206e6f6e20455243373231526560408201527131b2b4bb32b91034b6b83632b6b2b73a32b960711b606082015260800190565b600082612ffa57612ffa612f58565b500690565b60006020828403121561301157600080fd5b81516118bf81612b5f565b6001600160a01b038581168252841660208201526040810183905260806060820181905260009061304f908301846128ce565b9695505050505050565b60006020828403121561306b57600080fd5b81516118bf8161286f565b600082516130888184602087016128a2565b919091019291505056fea26469706673582212207c87a0f6d8ac0989b8048e0e3058913f991b289c48287905412fb64581a8242d64736f6c63430008090033697066733a2f2f516d577a7375766e506e416d4d66553557616847756934483938753354753172423565314459784a47594167616a2f68696464656e2e6a736f6e",
  "linkReferences": {},
  "deployedLinkReferences": {}
}